{
  "_format": "hh-sol-artifact-1",
  "contractName": "Articles",
  "sourceName": "contracts/Articles.sol",
  "abi": [
    {
      "inputs": [],
      "stateMutability": "nonpayable",
      "type": "constructor"
    },
    {
      "anonymous": false,
      "inputs": [
        {
          "indexed": true,
          "internalType": "address",
          "name": "account",
          "type": "address"
        },
        {
          "indexed": true,
          "internalType": "address",
          "name": "operator",
          "type": "address"
        },
        {
          "indexed": false,
          "internalType": "bool",
          "name": "approved",
          "type": "bool"
        }
      ],
      "name": "ApprovalForAll",
      "type": "event"
    },
    {
      "anonymous": false,
      "inputs": [
        {
          "indexed": true,
          "internalType": "bytes32",
          "name": "role",
          "type": "bytes32"
        },
        {
          "indexed": true,
          "internalType": "bytes32",
          "name": "previousAdminRole",
          "type": "bytes32"
        },
        {
          "indexed": true,
          "internalType": "bytes32",
          "name": "newAdminRole",
          "type": "bytes32"
        }
      ],
      "name": "RoleAdminChanged",
      "type": "event"
    },
    {
      "anonymous": false,
      "inputs": [
        {
          "indexed": true,
          "internalType": "bytes32",
          "name": "role",
          "type": "bytes32"
        },
        {
          "indexed": true,
          "internalType": "address",
          "name": "account",
          "type": "address"
        },
        {
          "indexed": true,
          "internalType": "address",
          "name": "sender",
          "type": "address"
        }
      ],
      "name": "RoleGranted",
      "type": "event"
    },
    {
      "anonymous": false,
      "inputs": [
        {
          "indexed": true,
          "internalType": "bytes32",
          "name": "role",
          "type": "bytes32"
        },
        {
          "indexed": true,
          "internalType": "address",
          "name": "account",
          "type": "address"
        },
        {
          "indexed": true,
          "internalType": "address",
          "name": "sender",
          "type": "address"
        }
      ],
      "name": "RoleRevoked",
      "type": "event"
    },
    {
      "anonymous": false,
      "inputs": [
        {
          "indexed": true,
          "internalType": "address",
          "name": "operator",
          "type": "address"
        },
        {
          "indexed": true,
          "internalType": "address",
          "name": "from",
          "type": "address"
        },
        {
          "indexed": true,
          "internalType": "address",
          "name": "to",
          "type": "address"
        },
        {
          "indexed": false,
          "internalType": "uint256[]",
          "name": "ids",
          "type": "uint256[]"
        },
        {
          "indexed": false,
          "internalType": "uint256[]",
          "name": "values",
          "type": "uint256[]"
        }
      ],
      "name": "TransferBatch",
      "type": "event"
    },
    {
      "anonymous": false,
      "inputs": [
        {
          "indexed": true,
          "internalType": "address",
          "name": "operator",
          "type": "address"
        },
        {
          "indexed": true,
          "internalType": "address",
          "name": "from",
          "type": "address"
        },
        {
          "indexed": true,
          "internalType": "address",
          "name": "to",
          "type": "address"
        },
        {
          "indexed": false,
          "internalType": "uint256",
          "name": "id",
          "type": "uint256"
        },
        {
          "indexed": false,
          "internalType": "uint256",
          "name": "value",
          "type": "uint256"
        }
      ],
      "name": "TransferSingle",
      "type": "event"
    },
    {
      "anonymous": false,
      "inputs": [
        {
          "indexed": false,
          "internalType": "string",
          "name": "value",
          "type": "string"
        },
        {
          "indexed": true,
          "internalType": "uint256",
          "name": "id",
          "type": "uint256"
        }
      ],
      "name": "URI",
      "type": "event"
    },
    {
      "inputs": [],
      "name": "DEFAULT_ADMIN_ROLE",
      "outputs": [
        {
          "internalType": "bytes32",
          "name": "",
          "type": "bytes32"
        }
      ],
      "stateMutability": "view",
      "type": "function"
    },
    {
      "inputs": [],
      "name": "EDITOR_ROLE",
      "outputs": [
        {
          "internalType": "bytes32",
          "name": "",
          "type": "bytes32"
        }
      ],
      "stateMutability": "view",
      "type": "function"
    },
    {
      "inputs": [],
      "name": "WRITER_ROLE",
      "outputs": [
        {
          "internalType": "bytes32",
          "name": "",
          "type": "bytes32"
        }
      ],
      "stateMutability": "view",
      "type": "function"
    },
    {
      "inputs": [
        {
          "internalType": "address",
          "name": "account",
          "type": "address"
        },
        {
          "internalType": "uint256",
          "name": "id",
          "type": "uint256"
        }
      ],
      "name": "balanceOf",
      "outputs": [
        {
          "internalType": "uint256",
          "name": "",
          "type": "uint256"
        }
      ],
      "stateMutability": "view",
      "type": "function"
    },
    {
      "inputs": [
        {
          "internalType": "address[]",
          "name": "accounts",
          "type": "address[]"
        },
        {
          "internalType": "uint256[]",
          "name": "ids",
          "type": "uint256[]"
        }
      ],
      "name": "balanceOfBatch",
      "outputs": [
        {
          "internalType": "uint256[]",
          "name": "",
          "type": "uint256[]"
        }
      ],
      "stateMutability": "view",
      "type": "function"
    },
    {
      "inputs": [
        {
          "internalType": "uint256",
          "name": "tokenId",
          "type": "uint256"
        },
        {
          "internalType": "string",
          "name": "tokenURI",
          "type": "string"
        },
        {
          "internalType": "string",
          "name": "ownerOnly",
          "type": "string"
        },
        {
          "internalType": "uint256",
          "name": "_price",
          "type": "uint256"
        }
      ],
      "name": "edit",
      "outputs": [],
      "stateMutability": "nonpayable",
      "type": "function"
    },
    {
      "inputs": [
        {
          "internalType": "address",
          "name": "user",
          "type": "address"
        }
      ],
      "name": "getArticles",
      "outputs": [
        {
          "components": [
            {
              "internalType": "address",
              "name": "writer",
              "type": "address"
            },
            {
              "internalType": "uint256",
              "name": "price",
              "type": "uint256"
            },
            {
              "internalType": "string",
              "name": "uri",
              "type": "string"
            },
            {
              "internalType": "string",
              "name": "ownerOnly",
              "type": "string"
            }
          ],
          "internalType": "struct Articles.Article[]",
          "name": "",
          "type": "tuple[]"
        }
      ],
      "stateMutability": "view",
      "type": "function"
    },
    {
      "inputs": [
        {
          "internalType": "bytes32",
          "name": "role",
          "type": "bytes32"
        }
      ],
      "name": "getRoleAdmin",
      "outputs": [
        {
          "internalType": "bytes32",
          "name": "",
          "type": "bytes32"
        }
      ],
      "stateMutability": "view",
      "type": "function"
    },
    {
      "inputs": [
        {
          "internalType": "bytes32",
          "name": "role",
          "type": "bytes32"
        },
        {
          "internalType": "uint256",
          "name": "index",
          "type": "uint256"
        }
      ],
      "name": "getRoleMember",
      "outputs": [
        {
          "internalType": "address",
          "name": "",
          "type": "address"
        }
      ],
      "stateMutability": "view",
      "type": "function"
    },
    {
      "inputs": [
        {
          "internalType": "bytes32",
          "name": "role",
          "type": "bytes32"
        }
      ],
      "name": "getRoleMemberCount",
      "outputs": [
        {
          "internalType": "uint256",
          "name": "",
          "type": "uint256"
        }
      ],
      "stateMutability": "view",
      "type": "function"
    },
    {
      "inputs": [
        {
          "internalType": "bytes32",
          "name": "role",
          "type": "bytes32"
        },
        {
          "internalType": "address",
          "name": "account",
          "type": "address"
        }
      ],
      "name": "grantRole",
      "outputs": [],
      "stateMutability": "nonpayable",
      "type": "function"
    },
    {
      "inputs": [
        {
          "internalType": "bytes32",
          "name": "role",
          "type": "bytes32"
        },
        {
          "internalType": "address",
          "name": "account",
          "type": "address"
        }
      ],
      "name": "hasRole",
      "outputs": [
        {
          "internalType": "bool",
          "name": "",
          "type": "bool"
        }
      ],
      "stateMutability": "view",
      "type": "function"
    },
    {
      "inputs": [
        {
          "internalType": "address",
          "name": "account",
          "type": "address"
        },
        {
          "internalType": "address",
          "name": "operator",
          "type": "address"
        }
      ],
      "name": "isApprovedForAll",
      "outputs": [
        {
          "internalType": "bool",
          "name": "",
          "type": "bool"
        }
      ],
      "stateMutability": "view",
      "type": "function"
    },
    {
      "inputs": [
        {
          "internalType": "uint256",
          "name": "id",
          "type": "uint256"
        },
        {
          "internalType": "uint256",
          "name": "quantity",
          "type": "uint256"
        }
      ],
      "name": "mint",
      "outputs": [],
      "stateMutability": "payable",
      "type": "function"
    },
    {
      "inputs": [
        {
          "internalType": "address",
          "name": "user",
          "type": "address"
        },
        {
          "internalType": "uint256",
          "name": "id",
          "type": "uint256"
        }
      ],
      "name": "ownerOnlyUri",
      "outputs": [
        {
          "internalType": "string",
          "name": "",
          "type": "string"
        }
      ],
      "stateMutability": "view",
      "type": "function"
    },
    {
      "inputs": [
        {
          "internalType": "string",
          "name": "tokenURI",
          "type": "string"
        },
        {
          "internalType": "string",
          "name": "ownerOnly",
          "type": "string"
        },
        {
          "internalType": "uint256",
          "name": "quantity",
          "type": "uint256"
        },
        {
          "internalType": "uint256",
          "name": "_price",
          "type": "uint256"
        }
      ],
      "name": "post",
      "outputs": [
        {
          "internalType": "uint256",
          "name": "",
          "type": "uint256"
        }
      ],
      "stateMutability": "nonpayable",
      "type": "function"
    },
    {
      "inputs": [
        {
          "internalType": "uint256",
          "name": "id",
          "type": "uint256"
        }
      ],
      "name": "price",
      "outputs": [
        {
          "internalType": "uint256",
          "name": "",
          "type": "uint256"
        }
      ],
      "stateMutability": "view",
      "type": "function"
    },
    {
      "inputs": [
        {
          "internalType": "bytes32",
          "name": "role",
          "type": "bytes32"
        },
        {
          "internalType": "address",
          "name": "account",
          "type": "address"
        }
      ],
      "name": "renounceRole",
      "outputs": [],
      "stateMutability": "nonpayable",
      "type": "function"
    },
    {
      "inputs": [
        {
          "internalType": "bytes32",
          "name": "role",
          "type": "bytes32"
        },
        {
          "internalType": "address",
          "name": "account",
          "type": "address"
        }
      ],
      "name": "revokeRole",
      "outputs": [],
      "stateMutability": "nonpayable",
      "type": "function"
    },
    {
      "inputs": [
        {
          "internalType": "address",
          "name": "from",
          "type": "address"
        },
        {
          "internalType": "address",
          "name": "to",
          "type": "address"
        },
        {
          "internalType": "uint256[]",
          "name": "ids",
          "type": "uint256[]"
        },
        {
          "internalType": "uint256[]",
          "name": "amounts",
          "type": "uint256[]"
        },
        {
          "internalType": "bytes",
          "name": "data",
          "type": "bytes"
        }
      ],
      "name": "safeBatchTransferFrom",
      "outputs": [],
      "stateMutability": "nonpayable",
      "type": "function"
    },
    {
      "inputs": [
        {
          "internalType": "address",
          "name": "from",
          "type": "address"
        },
        {
          "internalType": "address",
          "name": "to",
          "type": "address"
        },
        {
          "internalType": "uint256",
          "name": "id",
          "type": "uint256"
        },
        {
          "internalType": "uint256",
          "name": "amount",
          "type": "uint256"
        },
        {
          "internalType": "bytes",
          "name": "data",
          "type": "bytes"
        }
      ],
      "name": "safeTransferFrom",
      "outputs": [],
      "stateMutability": "nonpayable",
      "type": "function"
    },
    {
      "inputs": [
        {
          "internalType": "address",
          "name": "operator",
          "type": "address"
        },
        {
          "internalType": "bool",
          "name": "approved",
          "type": "bool"
        }
      ],
      "name": "setApprovalForAll",
      "outputs": [],
      "stateMutability": "nonpayable",
      "type": "function"
    },
    {
      "inputs": [
        {
          "internalType": "bytes4",
          "name": "interfaceId",
          "type": "bytes4"
        }
      ],
      "name": "supportsInterface",
      "outputs": [
        {
          "internalType": "bool",
          "name": "",
          "type": "bool"
        }
      ],
      "stateMutability": "view",
      "type": "function"
    },
    {
      "inputs": [
        {
          "internalType": "uint256",
          "name": "id",
          "type": "uint256"
        }
      ],
      "name": "uri",
      "outputs": [
        {
          "internalType": "string",
          "name": "",
          "type": "string"
        }
      ],
      "stateMutability": "view",
      "type": "function"
    }
  ],
  "bytecode": "0x60806040523480156200001157600080fd5b506040518060200160405280600081525062000033816200004f60201b60201c565b50620000496000801b336200006b60201b60201c565b62000418565b80600290805190602001906200006792919062000303565b5050565b6200007d82826200008160201b60201c565b5050565b620000988282620000c960201b6200199a1760201c565b620000c48160046000858152602001908152602001600020620001bb60201b62001a7b1790919060201c565b505050565b620000db8282620001f360201b60201c565b620001b75760016003600084815260200190815260200160002060000160008373ffffffffffffffffffffffffffffffffffffffff1673ffffffffffffffffffffffffffffffffffffffff16815260200190815260200160002060006101000a81548160ff0219169083151502179055506200015c6200025e60201b60201c565b73ffffffffffffffffffffffffffffffffffffffff168173ffffffffffffffffffffffffffffffffffffffff16837f2f8788117e7eff1d82e926ec794901d17c78024a50270940304540a733656f0d60405160405180910390a45b5050565b6000620001eb836000018373ffffffffffffffffffffffffffffffffffffffff1660001b6200026660201b60201c565b905092915050565b60006003600084815260200190815260200160002060000160008373ffffffffffffffffffffffffffffffffffffffff1673ffffffffffffffffffffffffffffffffffffffff16815260200190815260200160002060009054906101000a900460ff16905092915050565b600033905090565b60006200027a8383620002e060201b60201c565b620002d5578260000182908060018154018082558091505060019003906000526020600020016000909190919091505582600001805490508360010160008481526020019081526020016000208190555060019050620002da565b600090505b92915050565b600080836001016000848152602001908152602001600020541415905092915050565b8280546200031190620003b3565b90600052602060002090601f01602090048101928262000335576000855562000381565b82601f106200035057805160ff191683800117855562000381565b8280016001018555821562000381579182015b828111156200038057825182559160200191906001019062000363565b5b50905062000390919062000394565b5090565b5b80821115620003af57600081600090555060010162000395565b5090565b60006002820490506001821680620003cc57607f821691505b60208210811415620003e357620003e2620003e9565b5b50919050565b7f4e487b7100000000000000000000000000000000000000000000000000000000600052602260045260246000fd5b614fd680620004286000396000f3fe60806040526004361061014a5760003560e01c80639010d07c116100b6578063aa6b416d1161006f578063aa6b416d146104de578063ba2c6d3e1461051b578063ca15c87314610558578063d547741f14610595578063e985e9c5146105be578063f242432a146105fb5761014a565b80639010d07c146103ba57806391d14854146103f75780639beaab7b14610434578063a217fddf1461045f578063a22cb4651461048a578063a853211a146104b35761014a565b80632eb2c2d6116101085780632eb2c2d61461029c5780632f2ff15d146102c557806336568abe146102ee5780633bd20d4b146103175780634e1273f4146103405780636f495ecc1461037d5761014a565b8062fdd58e1461014f57806301ffc9a71461018c5780630e89341c146101c95780631b2ef1ca14610206578063248a9ca31461022257806326a49e371461025f575b600080fd5b34801561015b57600080fd5b50610176600480360381019061017191906137c0565b610624565b604051610183919061446b565b60405180910390f35b34801561019857600080fd5b506101b360048036038101906101ae9190613909565b6106ed565b6040516101c091906141d3565b60405180910390f35b3480156101d557600080fd5b506101f060048036038101906101eb91906139ee565b6106ff565b6040516101fd9190614209565b60405180910390f35b610220600480360381019061021b9190613aaa565b6107a7565b005b34801561022e57600080fd5b5061024960048036038101906102449190613868565b610a8b565b60405161025691906141ee565b60405180910390f35b34801561026b57600080fd5b50610286600480360381019061028191906139ee565b610aab565b604051610293919061446b565b60405180910390f35b3480156102a857600080fd5b506102c360048036038101906102be9190613636565b610acb565b005b3480156102d157600080fd5b506102ec60048036038101906102e79190613891565b610b6c565b005b3480156102fa57600080fd5b5061031560048036038101906103109190613891565b610b95565b005b34801561032357600080fd5b5061033e60048036038101906103399190613a17565b610c18565b005b34801561034c57600080fd5b50610367600480360381019061036291906137fc565b610d48565b604051610374919061417a565b60405180910390f35b34801561038957600080fd5b506103a4600480360381019061039f919061395b565b610ef9565b6040516103b1919061446b565b60405180910390f35b3480156103c657600080fd5b506103e160048036038101906103dc91906138cd565b6110c0565b6040516103ee919061407b565b60405180910390f35b34801561040357600080fd5b5061041e60048036038101906104199190613891565b6110ef565b60405161042b91906141d3565b60405180910390f35b34801561044057600080fd5b5061044961115a565b60405161045691906141ee565b60405180910390f35b34801561046b57600080fd5b5061047461117e565b60405161048191906141ee565b60405180910390f35b34801561049657600080fd5b506104b160048036038101906104ac9190613784565b611185565b005b3480156104bf57600080fd5b506104c861119b565b6040516104d591906141ee565b60405180910390f35b3480156104ea57600080fd5b50610505600480360381019061050091906137c0565b6111bf565b6040516105129190614209565b60405180910390f35b34801561052757600080fd5b50610542600480360381019061053d91906135d1565b611321565b60405161054f9190614158565b60405180910390f35b34801561056457600080fd5b5061057f600480360381019061057a9190613868565b611818565b60405161058c919061446b565b60405180910390f35b3480156105a157600080fd5b506105bc60048036038101906105b79190613891565b61183c565b005b3480156105ca57600080fd5b506105e560048036038101906105e091906135fa565b611865565b6040516105f291906141d3565b60405180910390f35b34801561060757600080fd5b50610622600480360381019061061d91906136f5565b6118f9565b005b60008073ffffffffffffffffffffffffffffffffffffffff168373ffffffffffffffffffffffffffffffffffffffff161415610695576040517f08c379a000000000000000000000000000000000000000000000000000000000815260040161068c9061428b565b60405180910390fd5b60008083815260200190815260200160002060008473ffffffffffffffffffffffffffffffffffffffff1673ffffffffffffffffffffffffffffffffffffffff16815260200190815260200160002054905092915050565b60006106f882611aab565b9050919050565b606060066000838152602001908152602001600020600201805461072290614822565b80601f016020809104026020016040519081016040528092919081815260200182805461074e90614822565b801561079b5780601f106107705761010080835404028352916020019161079b565b820191906000526020600020905b81548152906001019060200180831161077e57829003601f168201915b50505050509050919050565b6000600660008481526020019081526020016000206040518060800160405290816000820160009054906101000a900473ffffffffffffffffffffffffffffffffffffffff1673ffffffffffffffffffffffffffffffffffffffff1673ffffffffffffffffffffffffffffffffffffffff1681526020016001820154815260200160028201805461083790614822565b80601f016020809104026020016040519081016040528092919081815260200182805461086390614822565b80156108b05780601f10610885576101008083540402835291602001916108b0565b820191906000526020600020905b81548152906001019060200180831161089357829003601f168201915b505050505081526020016003820180546108c990614822565b80601f01602080910402602001604051908101604052809291908181526020018280546108f590614822565b80156109425780601f1061091757610100808354040283529160200191610942565b820191906000526020600020905b81548152906001019060200180831161092557829003601f168201915b505050505081525050905061095b816000015184610624565b821061099c576040517f08c379a00000000000000000000000000000000000000000000000000000000081526004016109939061440b565b60405180910390fd5b8181602001516109ac91906146aa565b3410156109ee576040517f08c379a00000000000000000000000000000000000000000000000000000000081526004016109e5906142ab565b60405180910390fd5b60008160200151148015610a025750600182115b80610a2657506000610a143385610624565b118015610a25575060008160200151145b5b15610a66576040517f08c379a0000000000000000000000000000000000000000000000000000000008152600401610a5d9061442b565b60405180910390fd5b610a86816000015133858560405180602001604052806000815250611b25565b505050565b600060036000838152602001908152602001600020600101549050919050565b600060066000838152602001908152602001600020600101549050919050565b610ad3611da7565b73ffffffffffffffffffffffffffffffffffffffff168573ffffffffffffffffffffffffffffffffffffffff161480610b195750610b1885610b13611da7565b611865565b5b610b58576040517f08c379a0000000000000000000000000000000000000000000000000000000008152600401610b4f9061430b565b60405180910390fd5b610b658585858585611daf565b5050505050565b610b7582610a8b565b610b8681610b81611da7565b61210f565b610b9083836121ac565b505050565b610b9d611da7565b73ffffffffffffffffffffffffffffffffffffffff168173ffffffffffffffffffffffffffffffffffffffff1614610c0a576040517f08c379a0000000000000000000000000000000000000000000000000000000008152600401610c019061444b565b60405180910390fd5b610c1482826121e0565b5050565b60006006600086815260200190815260200160002090508060000160009054906101000a900473ffffffffffffffffffffffffffffffffffffffff1673ffffffffffffffffffffffffffffffffffffffff163373ffffffffffffffffffffffffffffffffffffffff161480610cb35750610cb27f46fb36a7b80fa4ff28de0c37377add96ddb3e7fd3939279d4cff2078126d071e336110ef565b5b80610cc75750610cc66000801b336110ef565b5b610d06576040517f08c379a0000000000000000000000000000000000000000000000000000000008152600401610cfd906143ab565b60405180910390fd5b81816001018190555083816002019080519060200190610d27929190613276565b5082816003019080519060200190610d40929190613276565b505050505050565b60608151835114610d8e576040517f08c379a0000000000000000000000000000000000000000000000000000000008152600401610d859061438b565b60405180910390fd5b6000835167ffffffffffffffff811115610dd1577f4e487b7100000000000000000000000000000000000000000000000000000000600052604160045260246000fd5b604051908082528060200260200182016040528015610dff5781602001602082028036833780820191505090505b50905060005b8451811015610eee57610e98858281518110610e4a577f4e487b7100000000000000000000000000000000000000000000000000000000600052603260045260246000fd5b6020026020010151858381518110610e8b577f4e487b7100000000000000000000000000000000000000000000000000000000600052603260045260246000fd5b6020026020010151610624565b828281518110610ed1577f4e487b7100000000000000000000000000000000000000000000000000000000600052603260045260246000fd5b60200260200101818152505080610ee790614885565b9050610e05565b508091505092915050565b6000610f257f7d549dde075d921d7310502c79c4c5ebbf779caf14d42b271ffc8998cede33f0336110ef565b80610f565750610f557f46fb36a7b80fa4ff28de0c37377add96ddb3e7fd3939279d4cff2078126d071e336110ef565b5b80610f6a5750610f696000801b336110ef565b5b610fa9576040517f08c379a0000000000000000000000000000000000000000000000000000000008152600401610fa09061432b565b60405180910390fd5b610fb36005612214565b6000610fbf600561222a565b9050610fdc33828660405180602001604052806000815250612238565b60405180608001604052803373ffffffffffffffffffffffffffffffffffffffff168152602001848152602001878152602001868152506006600083815260200190815260200160002060008201518160000160006101000a81548173ffffffffffffffffffffffffffffffffffffffff021916908373ffffffffffffffffffffffffffffffffffffffff160217905550602082015181600101556040820151816002019080519060200190611093929190613276565b5060608201518160030190805190602001906110b0929190613276565b5090505080915050949350505050565b60006110e782600460008681526020019081526020016000206123ce90919063ffffffff16565b905092915050565b60006003600084815260200190815260200160002060000160008373ffffffffffffffffffffffffffffffffffffffff1673ffffffffffffffffffffffffffffffffffffffff16815260200190815260200160002060009054906101000a900460ff16905092915050565b7f7d549dde075d921d7310502c79c4c5ebbf779caf14d42b271ffc8998cede33f081565b6000801b81565b611197611190611da7565b83836123e8565b5050565b7f46fb36a7b80fa4ff28de0c37377add96ddb3e7fd3939279d4cff2078126d071e81565b606060006111cd8484610624565b1115611279576006600083815260200190815260200160002060030180546111f490614822565b80601f016020809104026020016040519081016040528092919081815260200182805461122090614822565b801561126d5780601f106112425761010080835404028352916020019161126d565b820191906000526020600020905b81548152906001019060200180831161125057829003601f168201915b5050505050905061131b565b60066000838152602001908152602001600020600201805461129a90614822565b80601f01602080910402602001604051908101604052809291908181526020018280546112c690614822565b80156113135780601f106112e857610100808354040283529160200191611313565b820191906000526020600020905b8154815290600101906020018083116112f657829003601f168201915b505050505090505b92915050565b606060006113326000801b846110ef565b905060006113607f46fb36a7b80fa4ff28de0c37377add96ddb3e7fd3939279d4cff2078126d071e856110ef565b90506000805b611370600561222a565b811161141257838061137f5750825b806113eb57508573ffffffffffffffffffffffffffffffffffffffff166006600083815260200190815260200160002060000160009054906101000a900473ffffffffffffffffffffffffffffffffffffffff1673ffffffffffffffffffffffffffffffffffffffff16145b156113ff5781806113fb90614885565b9250505b808061140a90614885565b915050611366565b5060008167ffffffffffffffff811115611455577f4e487b7100000000000000000000000000000000000000000000000000000000600052604160045260246000fd5b60405190808252806020026020018201604052801561148e57816020015b61147b6132fc565b8152602001906001900390816114735790505b50905060005b61149e600561222a565b811161180b576000600660008381526020019081526020016000206040518060800160405290816000820160009054906101000a900473ffffffffffffffffffffffffffffffffffffffff1673ffffffffffffffffffffffffffffffffffffffff1673ffffffffffffffffffffffffffffffffffffffff1681526020016001820154815260200160028201805461153490614822565b80601f016020809104026020016040519081016040528092919081815260200182805461156090614822565b80156115ad5780601f10611582576101008083540402835291602001916115ad565b820191906000526020600020905b81548152906001019060200180831161159057829003601f168201915b505050505081526020016003820180546115c690614822565b80601f01602080910402602001604051908101604052809291908181526020018280546115f290614822565b801561163f5780601f106116145761010080835404028352916020019161163f565b820191906000526020600020905b81548152906001019060200180831161162257829003601f168201915b505050505081525050905085806116535750845b8061168d57508773ffffffffffffffffffffffffffffffffffffffff16816000015173ffffffffffffffffffffffffffffffffffffffff16145b156117f75780600001518383815181106116d0577f4e487b7100000000000000000000000000000000000000000000000000000000600052603260045260246000fd5b60200260200101516000019073ffffffffffffffffffffffffffffffffffffffff16908173ffffffffffffffffffffffffffffffffffffffff1681525050806020015183838151811061174c577f4e487b7100000000000000000000000000000000000000000000000000000000600052603260045260246000fd5b60200260200101516020018181525050806040015183838151811061179a577f4e487b7100000000000000000000000000000000000000000000000000000000600052603260045260246000fd5b60200260200101516040018190525080606001518383815181106117e7577f4e487b7100000000000000000000000000000000000000000000000000000000600052603260045260246000fd5b6020026020010151606001819052505b50808061180390614885565b915050611494565b5080945050505050919050565b600061183560046000848152602001908152602001600020612555565b9050919050565b61184582610a8b565b61185681611851611da7565b61210f565b61186083836121e0565b505050565b6000600160008473ffffffffffffffffffffffffffffffffffffffff1673ffffffffffffffffffffffffffffffffffffffff16815260200190815260200160002060008373ffffffffffffffffffffffffffffffffffffffff1673ffffffffffffffffffffffffffffffffffffffff16815260200190815260200160002060009054906101000a900460ff16905092915050565b611901611da7565b73ffffffffffffffffffffffffffffffffffffffff168573ffffffffffffffffffffffffffffffffffffffff161480611947575061194685611941611da7565b611865565b5b611986576040517f08c379a000000000000000000000000000000000000000000000000000000000815260040161197d906142cb565b60405180910390fd5b6119938585858585611b25565b5050505050565b6119a482826110ef565b611a775760016003600084815260200190815260200160002060000160008373ffffffffffffffffffffffffffffffffffffffff1673ffffffffffffffffffffffffffffffffffffffff16815260200190815260200160002060006101000a81548160ff021916908315150217905550611a1c611da7565b73ffffffffffffffffffffffffffffffffffffffff168173ffffffffffffffffffffffffffffffffffffffff16837f2f8788117e7eff1d82e926ec794901d17c78024a50270940304540a733656f0d60405160405180910390a45b5050565b6000611aa3836000018373ffffffffffffffffffffffffffffffffffffffff1660001b61256a565b905092915050565b60007f5a05180f000000000000000000000000000000000000000000000000000000007bffffffffffffffffffffffffffffffffffffffffffffffffffffffff1916827bffffffffffffffffffffffffffffffffffffffffffffffffffffffff19161480611b1e5750611b1d826125da565b5b9050919050565b600073ffffffffffffffffffffffffffffffffffffffff168473ffffffffffffffffffffffffffffffffffffffff161415611b95576040517f08c379a0000000000000000000000000000000000000000000000000000000008152600401611b8c906142eb565b60405180910390fd5b6000611b9f611da7565b9050611bbf818787611bb088612654565b611bb988612654565b8761271a565b600080600086815260200190815260200160002060008873ffffffffffffffffffffffffffffffffffffffff1673ffffffffffffffffffffffffffffffffffffffff16815260200190815260200160002054905083811015611c56576040517f08c379a0000000000000000000000000000000000000000000000000000000008152600401611c4d9061434b565b60405180910390fd5b83810360008087815260200190815260200160002060008973ffffffffffffffffffffffffffffffffffffffff1673ffffffffffffffffffffffffffffffffffffffff168152602001908152602001600020819055508360008087815260200190815260200160002060008873ffffffffffffffffffffffffffffffffffffffff1673ffffffffffffffffffffffffffffffffffffffff1681526020019081526020016000206000828254611d0b9190614654565b925050819055508573ffffffffffffffffffffffffffffffffffffffff168773ffffffffffffffffffffffffffffffffffffffff168373ffffffffffffffffffffffffffffffffffffffff167fc3d58168c5ae7397731d063d5bbf3d657854427343f4c083240f7aacaa2d0f628888604051611d88929190614486565b60405180910390a4611d9e828888888888612722565b50505050505050565b600033905090565b8151835114611df3576040517f08c379a0000000000000000000000000000000000000000000000000000000008152600401611dea906143cb565b60405180910390fd5b600073ffffffffffffffffffffffffffffffffffffffff168473ffffffffffffffffffffffffffffffffffffffff161415611e63576040517f08c379a0000000000000000000000000000000000000000000000000000000008152600401611e5a906142eb565b60405180910390fd5b6000611e6d611da7565b9050611e7d81878787878761271a565b60005b845181101561207a576000858281518110611ec4577f4e487b7100000000000000000000000000000000000000000000000000000000600052603260045260246000fd5b602002602001015190506000858381518110611f09577f4e487b7100000000000000000000000000000000000000000000000000000000600052603260045260246000fd5b60200260200101519050600080600084815260200190815260200160002060008b73ffffffffffffffffffffffffffffffffffffffff1673ffffffffffffffffffffffffffffffffffffffff16815260200190815260200160002054905081811015611faa576040517f08c379a0000000000000000000000000000000000000000000000000000000008152600401611fa19061434b565b60405180910390fd5b81810360008085815260200190815260200160002060008c73ffffffffffffffffffffffffffffffffffffffff1673ffffffffffffffffffffffffffffffffffffffff168152602001908152602001600020819055508160008085815260200190815260200160002060008b73ffffffffffffffffffffffffffffffffffffffff1673ffffffffffffffffffffffffffffffffffffffff168152602001908152602001600020600082825461205f9190614654565b925050819055505050508061207390614885565b9050611e80565b508473ffffffffffffffffffffffffffffffffffffffff168673ffffffffffffffffffffffffffffffffffffffff168273ffffffffffffffffffffffffffffffffffffffff167f4a39dc06d4c0dbc64b70af90fd698a233a518aa5d07e595d983b8c0526c8f7fb87876040516120f192919061419c565b60405180910390a4612107818787878787612909565b505050505050565b61211982826110ef565b6121a85761213e8173ffffffffffffffffffffffffffffffffffffffff166014612af0565b61214c8360001c6020612af0565b60405160200161215d929190614041565b6040516020818303038152906040526040517f08c379a000000000000000000000000000000000000000000000000000000000815260040161219f9190614209565b60405180910390fd5b5050565b6121b6828261199a565b6121db8160046000858152602001908152602001600020611a7b90919063ffffffff16565b505050565b6121ea8282612dea565b61220f8160046000858152602001908152602001600020612ecc90919063ffffffff16565b505050565b6001816000016000828254019250508190555050565b600081600001549050919050565b600073ffffffffffffffffffffffffffffffffffffffff168473ffffffffffffffffffffffffffffffffffffffff1614156122a8576040517f08c379a000000000000000000000000000000000000000000000000000000000815260040161229f906143eb565b60405180910390fd5b60006122b2611da7565b90506122d3816000876122c488612654565b6122cd88612654565b8761271a565b8260008086815260200190815260200160002060008773ffffffffffffffffffffffffffffffffffffffff1673ffffffffffffffffffffffffffffffffffffffff16815260200190815260200160002060008282546123329190614654565b925050819055508473ffffffffffffffffffffffffffffffffffffffff16600073ffffffffffffffffffffffffffffffffffffffff168273ffffffffffffffffffffffffffffffffffffffff167fc3d58168c5ae7397731d063d5bbf3d657854427343f4c083240f7aacaa2d0f6287876040516123b0929190614486565b60405180910390a46123c781600087878787612722565b5050505050565b60006123dd8360000183612efc565b60001c905092915050565b8173ffffffffffffffffffffffffffffffffffffffff168373ffffffffffffffffffffffffffffffffffffffff161415612457576040517f08c379a000000000000000000000000000000000000000000000000000000000815260040161244e9061436b565b60405180910390fd5b80600160008573ffffffffffffffffffffffffffffffffffffffff1673ffffffffffffffffffffffffffffffffffffffff16815260200190815260200160002060008473ffffffffffffffffffffffffffffffffffffffff1673ffffffffffffffffffffffffffffffffffffffff16815260200190815260200160002060006101000a81548160ff0219169083151502179055508173ffffffffffffffffffffffffffffffffffffffff168373ffffffffffffffffffffffffffffffffffffffff167f17307eab39ab6107e8899845ad3d59bd9653f200f220920489ca2b5937696c318360405161254891906141d3565b60405180910390a3505050565b600061256382600001612f4d565b9050919050565b60006125768383612f5e565b6125cf5782600001829080600181540180825580915050600190039060005260206000200160009091909190915055826000018054905083600101600084815260200190815260200160002081905550600190506125d4565b600090505b92915050565b60007f7965db0b000000000000000000000000000000000000000000000000000000007bffffffffffffffffffffffffffffffffffffffffffffffffffffffff1916827bffffffffffffffffffffffffffffffffffffffffffffffffffffffff1916148061264d575061264c82612f81565b5b9050919050565b60606000600167ffffffffffffffff811115612699577f4e487b7100000000000000000000000000000000000000000000000000000000600052604160045260246000fd5b6040519080825280602002602001820160405280156126c75781602001602082028036833780820191505090505b5090508281600081518110612705577f4e487b7100000000000000000000000000000000000000000000000000000000600052603260045260246000fd5b60200260200101818152505080915050919050565b505050505050565b6127418473ffffffffffffffffffffffffffffffffffffffff16613063565b15612901578373ffffffffffffffffffffffffffffffffffffffff1663f23a6e6187878686866040518663ffffffff1660e01b81526004016127879594939291906140fe565b602060405180830381600087803b1580156127a157600080fd5b505af19250505080156127d257506040513d601f19601f820116820180604052508101906127cf9190613932565b60015b612878576127de61495b565b806308c379a0141561283b57506127f3614e97565b806127fe575061283d565b806040517f08c379a00000000000000000000000000000000000000000000000000000000081526004016128329190614209565b60405180910390fd5b505b6040517f08c379a000000000000000000000000000000000000000000000000000000000815260040161286f9061422b565b60405180910390fd5b63f23a6e6160e01b7bffffffffffffffffffffffffffffffffffffffffffffffffffffffff1916817bffffffffffffffffffffffffffffffffffffffffffffffffffffffff1916146128ff576040517f08c379a00000000000000000000000000000000000000000000000000000000081526004016128f69061426b565b60405180910390fd5b505b505050505050565b6129288473ffffffffffffffffffffffffffffffffffffffff16613063565b15612ae8578373ffffffffffffffffffffffffffffffffffffffff1663bc197c8187878686866040518663ffffffff1660e01b815260040161296e959493929190614096565b602060405180830381600087803b15801561298857600080fd5b505af19250505080156129b957506040513d601f19601f820116820180604052508101906129b69190613932565b60015b612a5f576129c561495b565b806308c379a01415612a2257506129da614e97565b806129e55750612a24565b806040517f08c379a0000000000000000000000000000000000000000000000000000000008152600401612a199190614209565b60405180910390fd5b505b6040517f08c379a0000000000000000000000000000000000000000000000000000000008152600401612a569061422b565b60405180910390fd5b63bc197c8160e01b7bffffffffffffffffffffffffffffffffffffffffffffffffffffffff1916817bffffffffffffffffffffffffffffffffffffffffffffffffffffffff191614612ae6576040517f08c379a0000000000000000000000000000000000000000000000000000000008152600401612add9061426b565b60405180910390fd5b505b505050505050565b606060006002836002612b0391906146aa565b612b0d9190614654565b67ffffffffffffffff811115612b4c577f4e487b7100000000000000000000000000000000000000000000000000000000600052604160045260246000fd5b6040519080825280601f01601f191660200182016040528015612b7e5781602001600182028036833780820191505090505b5090507f300000000000000000000000000000000000000000000000000000000000000081600081518110612bdc577f4e487b7100000000000000000000000000000000000000000000000000000000600052603260045260246000fd5b60200101907effffffffffffffffffffffffffffffffffffffffffffffffffffffffffffff1916908160001a9053507f780000000000000000000000000000000000000000000000000000000000000081600181518110612c66577f4e487b7100000000000000000000000000000000000000000000000000000000600052603260045260246000fd5b60200101907effffffffffffffffffffffffffffffffffffffffffffffffffffffffffffff1916908160001a90535060006001846002612ca691906146aa565b612cb09190614654565b90505b6001811115612d9c577f3031323334353637383961626364656600000000000000000000000000000000600f861660108110612d18577f4e487b7100000000000000000000000000000000000000000000000000000000600052603260045260246000fd5b1a60f81b828281518110612d55577f4e487b7100000000000000000000000000000000000000000000000000000000600052603260045260246000fd5b60200101907effffffffffffffffffffffffffffffffffffffffffffffffffffffffffffff1916908160001a905350600485901c945080612d95906147f8565b9050612cb3565b5060008414612de0576040517f08c379a0000000000000000000000000000000000000000000000000000000008152600401612dd79061424b565b60405180910390fd5b8091505092915050565b612df482826110ef565b15612ec85760006003600084815260200190815260200160002060000160008373ffffffffffffffffffffffffffffffffffffffff1673ffffffffffffffffffffffffffffffffffffffff16815260200190815260200160002060006101000a81548160ff021916908315150217905550612e6d611da7565b73ffffffffffffffffffffffffffffffffffffffff168173ffffffffffffffffffffffffffffffffffffffff16837ff6391f5c32d9c69d2a47ea670b442974b53935d1edc7fd64eb21e047a839171b60405160405180910390a45b5050565b6000612ef4836000018373ffffffffffffffffffffffffffffffffffffffff1660001b613086565b905092915050565b6000826000018281548110612f3a577f4e487b7100000000000000000000000000000000000000000000000000000000600052603260045260246000fd5b9060005260206000200154905092915050565b600081600001805490509050919050565b600080836001016000848152602001908152602001600020541415905092915050565b60007fd9b67a26000000000000000000000000000000000000000000000000000000007bffffffffffffffffffffffffffffffffffffffffffffffffffffffff1916827bffffffffffffffffffffffffffffffffffffffffffffffffffffffff1916148061304c57507f0e89341c000000000000000000000000000000000000000000000000000000007bffffffffffffffffffffffffffffffffffffffffffffffffffffffff1916827bffffffffffffffffffffffffffffffffffffffffffffffffffffffff1916145b8061305c575061305b8261320c565b5b9050919050565b6000808273ffffffffffffffffffffffffffffffffffffffff163b119050919050565b600080836001016000848152602001908152602001600020549050600081146132005760006001826130b89190614704565b90506000600186600001805490506130d09190614704565b905081811461318b576000866000018281548110613117577f4e487b7100000000000000000000000000000000000000000000000000000000600052603260045260246000fd5b9060005260206000200154905080876000018481548110613161577f4e487b7100000000000000000000000000000000000000000000000000000000600052603260045260246000fd5b90600052602060002001819055508387600101600083815260200190815260200160002081905550505b856000018054806131c5577f4e487b7100000000000000000000000000000000000000000000000000000000600052603160045260246000fd5b600190038181906000526020600020016000905590558560010160008681526020019081526020016000206000905560019350505050613206565b60009150505b92915050565b60007f01ffc9a7000000000000000000000000000000000000000000000000000000007bffffffffffffffffffffffffffffffffffffffffffffffffffffffff1916827bffffffffffffffffffffffffffffffffffffffffffffffffffffffff1916149050919050565b82805461328290614822565b90600052602060002090601f0160209004810192826132a457600085556132eb565b82601f106132bd57805160ff19168380011785556132eb565b828001600101855582156132eb579182015b828111156132ea5782518255916020019190600101906132cf565b5b5090506132f8919061333a565b5090565b6040518060800160405280600073ffffffffffffffffffffffffffffffffffffffff1681526020016000815260200160608152602001606081525090565b5b8082111561335357600081600090555060010161333b565b5090565b600061336a613365846144d4565b6144af565b9050808382526020820190508285602086028201111561338957600080fd5b60005b858110156133b9578161339f88826134ab565b84526020840193506020830192505060018101905061338c565b5050509392505050565b60006133d66133d184614500565b6144af565b905080838252602082019050828560208602820111156133f557600080fd5b60005b85811015613425578161340b88826135bc565b8452602084019350602083019250506001810190506133f8565b5050509392505050565b600061344261343d8461452c565b6144af565b90508281526020810184848401111561345a57600080fd5b6134658482856147b6565b509392505050565b600061348061347b8461455d565b6144af565b90508281526020810184848401111561349857600080fd5b6134a38482856147b6565b509392505050565b6000813590506134ba81614f2d565b92915050565b600082601f8301126134d157600080fd5b81356134e1848260208601613357565b91505092915050565b600082601f8301126134fb57600080fd5b813561350b8482602086016133c3565b91505092915050565b60008135905061352381614f44565b92915050565b60008135905061353881614f5b565b92915050565b60008135905061354d81614f72565b92915050565b60008151905061356281614f72565b92915050565b600082601f83011261357957600080fd5b813561358984826020860161342f565b91505092915050565b600082601f8301126135a357600080fd5b81356135b384826020860161346d565b91505092915050565b6000813590506135cb81614f89565b92915050565b6000602082840312156135e357600080fd5b60006135f1848285016134ab565b91505092915050565b6000806040838503121561360d57600080fd5b600061361b858286016134ab565b925050602061362c858286016134ab565b9150509250929050565b600080600080600060a0868803121561364e57600080fd5b600061365c888289016134ab565b955050602061366d888289016134ab565b945050604086013567ffffffffffffffff81111561368a57600080fd5b613696888289016134ea565b935050606086013567ffffffffffffffff8111156136b357600080fd5b6136bf888289016134ea565b925050608086013567ffffffffffffffff8111156136dc57600080fd5b6136e888828901613568565b9150509295509295909350565b600080600080600060a0868803121561370d57600080fd5b600061371b888289016134ab565b955050602061372c888289016134ab565b945050604061373d888289016135bc565b935050606061374e888289016135bc565b925050608086013567ffffffffffffffff81111561376b57600080fd5b61377788828901613568565b9150509295509295909350565b6000806040838503121561379757600080fd5b60006137a5858286016134ab565b92505060206137b685828601613514565b9150509250929050565b600080604083850312156137d357600080fd5b60006137e1858286016134ab565b92505060206137f2858286016135bc565b9150509250929050565b6000806040838503121561380f57600080fd5b600083013567ffffffffffffffff81111561382957600080fd5b613835858286016134c0565b925050602083013567ffffffffffffffff81111561385257600080fd5b61385e858286016134ea565b9150509250929050565b60006020828403121561387a57600080fd5b600061388884828501613529565b91505092915050565b600080604083850312156138a457600080fd5b60006138b285828601613529565b92505060206138c3858286016134ab565b9150509250929050565b600080604083850312156138e057600080fd5b60006138ee85828601613529565b92505060206138ff858286016135bc565b9150509250929050565b60006020828403121561391b57600080fd5b60006139298482850161353e565b91505092915050565b60006020828403121561394457600080fd5b600061395284828501613553565b91505092915050565b6000806000806080858703121561397157600080fd5b600085013567ffffffffffffffff81111561398b57600080fd5b61399787828801613592565b945050602085013567ffffffffffffffff8111156139b457600080fd5b6139c087828801613592565b93505060406139d1878288016135bc565b92505060606139e2878288016135bc565b91505092959194509250565b600060208284031215613a0057600080fd5b6000613a0e848285016135bc565b91505092915050565b60008060008060808587031215613a2d57600080fd5b6000613a3b878288016135bc565b945050602085013567ffffffffffffffff811115613a5857600080fd5b613a6487828801613592565b935050604085013567ffffffffffffffff811115613a8157600080fd5b613a8d87828801613592565b9250506060613a9e878288016135bc565b91505092959194509250565b60008060408385031215613abd57600080fd5b6000613acb858286016135bc565b9250506020613adc858286016135bc565b9150509250929050565b6000613af28383613fb9565b905092915050565b6000613b068383614023565b60208301905092915050565b613b1b81614738565b82525050565b613b2a81614738565b82525050565b6000613b3b826145ae565b613b4581856145f4565b935083602082028501613b578561458e565b8060005b85811015613b935784840389528151613b748582613ae6565b9450613b7f836145da565b925060208a01995050600181019050613b5b565b50829750879550505050505092915050565b6000613bb0826145b9565b613bba8185614605565b9350613bc58361459e565b8060005b83811015613bf6578151613bdd8882613afa565b9750613be8836145e7565b925050600181019050613bc9565b5085935050505092915050565b613c0c8161474a565b82525050565b613c1b81614756565b82525050565b6000613c2c826145c4565b613c368185614616565b9350613c468185602086016147c5565b613c4f8161497d565b840191505092915050565b6000613c65826145cf565b613c6f8185614627565b9350613c7f8185602086016147c5565b613c888161497d565b840191505092915050565b6000613c9e826145cf565b613ca88185614638565b9350613cb88185602086016147c5565b613cc18161497d565b840191505092915050565b6000613cd7826145cf565b613ce18185614649565b9350613cf18185602086016147c5565b80840191505092915050565b6000613d0a603483614638565b9150613d158261499b565b604082019050919050565b6000613d2d602083614638565b9150613d38826149ea565b602082019050919050565b6000613d50602883614638565b9150613d5b82614a13565b604082019050919050565b6000613d73602b83614638565b9150613d7e82614a62565b604082019050919050565b6000613d96601683614638565b9150613da182614ab1565b602082019050919050565b6000613db9602983614638565b9150613dc482614ada565b604082019050919050565b6000613ddc602583614638565b9150613de782614b29565b604082019050919050565b6000613dff603283614638565b9150613e0a82614b78565b604082019050919050565b6000613e22601d83614638565b9150613e2d82614bc7565b602082019050919050565b6000613e45602a83614638565b9150613e5082614bf0565b604082019050919050565b6000613e68601783614649565b9150613e7382614c3f565b601782019050919050565b6000613e8b602983614638565b9150613e9682614c68565b604082019050919050565b6000613eae602983614638565b9150613eb982614cb7565b604082019050919050565b6000613ed1600d83614638565b9150613edc82614d06565b602082019050919050565b6000613ef4602883614638565b9150613eff82614d2f565b604082019050919050565b6000613f17602183614638565b9150613f2282614d7e565b604082019050919050565b6000613f3a601f83614638565b9150613f4582614dcd565b602082019050919050565b6000613f5d601683614638565b9150613f6882614df6565b602082019050919050565b6000613f80601183614649565b9150613f8b82614e1f565b601182019050919050565b6000613fa3602f83614638565b9150613fae82614e48565b604082019050919050565b6000608083016000830151613fd16000860182613b12565b506020830151613fe46020860182614023565b5060408301518482036040860152613ffc8282613c5a565b915050606083015184820360608601526140168282613c5a565b9150508091505092915050565b61402c816147ac565b82525050565b61403b816147ac565b82525050565b600061404c82613e5b565b91506140588285613ccc565b915061406382613f73565b915061406f8284613ccc565b91508190509392505050565b60006020820190506140906000830184613b21565b92915050565b600060a0820190506140ab6000830188613b21565b6140b86020830187613b21565b81810360408301526140ca8186613ba5565b905081810360608301526140de8185613ba5565b905081810360808301526140f28184613c21565b90509695505050505050565b600060a0820190506141136000830188613b21565b6141206020830187613b21565b61412d6040830186614032565b61413a6060830185614032565b818103608083015261414c8184613c21565b90509695505050505050565b600060208201905081810360008301526141728184613b30565b905092915050565b600060208201905081810360008301526141948184613ba5565b905092915050565b600060408201905081810360008301526141b68185613ba5565b905081810360208301526141ca8184613ba5565b90509392505050565b60006020820190506141e86000830184613c03565b92915050565b60006020820190506142036000830184613c12565b92915050565b600060208201905081810360008301526142238184613c93565b905092915050565b6000602082019050818103600083015261424481613cfd565b9050919050565b6000602082019050818103600083015261426481613d20565b9050919050565b6000602082019050818103600083015261428481613d43565b9050919050565b600060208201905081810360008301526142a481613d66565b9050919050565b600060208201905081810360008301526142c481613d89565b9050919050565b600060208201905081810360008301526142e481613dac565b9050919050565b6000602082019050818103600083015261430481613dcf565b9050919050565b6000602082019050818103600083015261432481613df2565b9050919050565b6000602082019050818103600083015261434481613e15565b9050919050565b6000602082019050818103600083015261436481613e38565b9050919050565b6000602082019050818103600083015261438481613e7e565b9050919050565b600060208201905081810360008301526143a481613ea1565b9050919050565b600060208201905081810360008301526143c481613ec4565b9050919050565b600060208201905081810360008301526143e481613ee7565b9050919050565b6000602082019050818103600083015261440481613f0a565b9050919050565b6000602082019050818103600083015261442481613f2d565b9050919050565b6000602082019050818103600083015261444481613f50565b9050919050565b6000602082019050818103600083015261446481613f96565b9050919050565b60006020820190506144806000830184614032565b92915050565b600060408201905061449b6000830185614032565b6144a86020830184614032565b9392505050565b60006144b96144ca565b90506144c58282614854565b919050565b6000604051905090565b600067ffffffffffffffff8211156144ef576144ee61492c565b5b602082029050602081019050919050565b600067ffffffffffffffff82111561451b5761451a61492c565b5b602082029050602081019050919050565b600067ffffffffffffffff8211156145475761454661492c565b5b6145508261497d565b9050602081019050919050565b600067ffffffffffffffff8211156145785761457761492c565b5b6145818261497d565b9050602081019050919050565b6000819050602082019050919050565b6000819050602082019050919050565b600081519050919050565b600081519050919050565b600081519050919050565b600081519050919050565b6000602082019050919050565b6000602082019050919050565b600082825260208201905092915050565b600082825260208201905092915050565b600082825260208201905092915050565b600082825260208201905092915050565b600082825260208201905092915050565b600081905092915050565b600061465f826147ac565b915061466a836147ac565b9250827fffffffffffffffffffffffffffffffffffffffffffffffffffffffffffffffff0382111561469f5761469e6148ce565b5b828201905092915050565b60006146b5826147ac565b91506146c0836147ac565b9250817fffffffffffffffffffffffffffffffffffffffffffffffffffffffffffffffff04831182151516156146f9576146f86148ce565b5b828202905092915050565b600061470f826147ac565b915061471a836147ac565b92508282101561472d5761472c6148ce565b5b828203905092915050565b60006147438261478c565b9050919050565b60008115159050919050565b6000819050919050565b60007fffffffff0000000000000000000000000000000000000000000000000000000082169050919050565b600073ffffffffffffffffffffffffffffffffffffffff82169050919050565b6000819050919050565b82818337600083830152505050565b60005b838110156147e35780820151818401526020810190506147c8565b838111156147f2576000848401525b50505050565b6000614803826147ac565b91506000821415614817576148166148ce565b5b600182039050919050565b6000600282049050600182168061483a57607f821691505b6020821081141561484e5761484d6148fd565b5b50919050565b61485d8261497d565b810181811067ffffffffffffffff8211171561487c5761487b61492c565b5b80604052505050565b6000614890826147ac565b91507fffffffffffffffffffffffffffffffffffffffffffffffffffffffffffffffff8214156148c3576148c26148ce565b5b600182019050919050565b7f4e487b7100000000000000000000000000000000000000000000000000000000600052601160045260246000fd5b7f4e487b7100000000000000000000000000000000000000000000000000000000600052602260045260246000fd5b7f4e487b7100000000000000000000000000000000000000000000000000000000600052604160045260246000fd5b600060033d111561497a5760046000803e61497760005161498e565b90505b90565b6000601f19601f8301169050919050565b60008160e01c9050919050565b7f455243313135353a207472616e7366657220746f206e6f6e204552433131353560008201527f526563656976657220696d706c656d656e746572000000000000000000000000602082015250565b7f537472696e67733a20686578206c656e67746820696e73756666696369656e74600082015250565b7f455243313135353a204552433131353552656365697665722072656a6563746560008201527f6420746f6b656e73000000000000000000000000000000000000000000000000602082015250565b7f455243313135353a2062616c616e636520717565727920666f7220746865207a60008201527f65726f2061646472657373000000000000000000000000000000000000000000602082015250565b7f616d6f756e7420776173206e6f7420656e6f7567682e00000000000000000000600082015250565b7f455243313135353a2063616c6c6572206973206e6f74206f776e6572206e6f7260008201527f20617070726f7665640000000000000000000000000000000000000000000000602082015250565b7f455243313135353a207472616e7366657220746f20746865207a65726f20616460008201527f6472657373000000000000000000000000000000000000000000000000000000602082015250565b7f455243313135353a207472616e736665722063616c6c6572206973206e6f742060008201527f6f776e6572206e6f7220617070726f7665640000000000000000000000000000602082015250565b7f596f7520646f6e277420686176652074686520617574686f726974792e000000600082015250565b7f455243313135353a20696e73756666696369656e742062616c616e636520666f60008201527f72207472616e7366657200000000000000000000000000000000000000000000602082015250565b7f416363657373436f6e74726f6c3a206163636f756e7420000000000000000000600082015250565b7f455243313135353a2073657474696e6720617070726f76616c2073746174757360008201527f20666f722073656c660000000000000000000000000000000000000000000000602082015250565b7f455243313135353a206163636f756e747320616e6420696473206c656e67746860008201527f206d69736d617463680000000000000000000000000000000000000000000000602082015250565b7f4e6f20617574686f726974792e00000000000000000000000000000000000000600082015250565b7f455243313135353a2069647320616e6420616d6f756e7473206c656e6774682060008201527f6d69736d61746368000000000000000000000000000000000000000000000000602082015250565b7f455243313135353a206d696e7420746f20746865207a65726f2061646472657360008201527f7300000000000000000000000000000000000000000000000000000000000000602082015250565b7f57652772652072756e6e696e67206c6f77206f6e20696e76656e746f72792e00600082015250565b7f596f752063616e206f6e6c792068617665206f6e652e00000000000000000000600082015250565b7f206973206d697373696e6720726f6c6520000000000000000000000000000000600082015250565b7f416363657373436f6e74726f6c3a2063616e206f6e6c792072656e6f756e636560008201527f20726f6c657320666f722073656c660000000000000000000000000000000000602082015250565b600060443d1015614ea757614f2a565b614eaf6144ca565b60043d036004823e80513d602482011167ffffffffffffffff82111715614ed7575050614f2a565b808201805167ffffffffffffffff811115614ef55750505050614f2a565b80602083010160043d038501811115614f12575050505050614f2a565b614f2182602001850186614854565b82955050505050505b90565b614f3681614738565b8114614f4157600080fd5b50565b614f4d8161474a565b8114614f5857600080fd5b50565b614f6481614756565b8114614f6f57600080fd5b50565b614f7b81614760565b8114614f8657600080fd5b50565b614f92816147ac565b8114614f9d57600080fd5b5056fea2646970667358221220006b16ac5c6468856e2b490cfbf652f96e58fa940ccf684c22139d320ba1427a64736f6c63430008040033",
  "linkReferences": {},
  "deployedLinkReferences": {}
}